:100000000C9496060C94C7060C94C7060C94C7066D
:100010000C94C7060C94C7060C94C7060C94C7062C
:100020000C94C7060C94C7060C94C7060C94C7061C
:100030000C94C7060C94C7060C94C7060C94C7060C
:100040000C94C7060C94C7060C94C7060C94C706FC
:100050000C94C7060C94C7060C94C7060C946C1A33
:100060000C94C7060C94E01A0C94B61A0C94C706AC
:100070000C94C7060C94C7060C94C7060C94C706CC
:100080000C94C7060C94C7060C94C7060C94C706BC
:100090000C94C7060C94C7060C94C7060C94161B48
:1000A0000C94C7060C94C7060C94C7060C94C7069C
:1000B0000C94C7060C94C7060C94C7060C94C7068C
:1000C0000C94C7060C94C7060C94C7060C94C7067C
:1000D0000C94C7060C94C7060C94C7060C94C7066C
:1000E0000C94C7060C9432130C942B070C94FE123C
:1000F0000C94DA0A0C94B00F0C943F070C94EB129A
:100100000C9435070C94F2220C9477100C942C0864
:100110000C9495080C9443070C94930A0C94C9060C
:100120000C94950B0C94E2080C940C070C94230788
:100130000C9427070C9467100C94E6160C94DC12B0
:100140000C94FF070C943E070C944F080C941B0F63
:100150000C94BC0E0C9483100C945D080C94C91183
:100160000C94FE070C9439070C9490160C94CF0D48
:100170000C943A1C0C9410070C9431070C94FE0656
:100180000C9404070C944A0A0C941D070C94FD0768
:100190000C9405130C9408070C9419070C94930FF6
:1001A0000C943B080C9475120C9461110C94130779
:1001B0003E2A2043494B49530020204241534C41A1
:1001C0005400202043494B4953003E2A20424153CA
:1001D0004C415400536B6F723A20004F79756E7525
:1001E0000A4B617962657474696E697A2100000056
:1001F00020002300260029002C002F0032000001DF
:10020000000003010601090100000000003E5B4FF1
:100210005B3E3E6B4F6B3E1C3E7C3E1C183C7E3C66
:10022000181C577D571C1C5E7F5E1C00183C180074
:10023000FFE7C3E7FF0018241800FFE7DBE7FF3004
:10024000483A060E2629792926407F050507407F72
:1002500005253F5A3CE73C5A7F3E1C1C08081C1CE5
:100260003E7F14227F22145F5F005F5F06097F01DB
:100270007F006689956A606060606094A2FFA294C6
:1002800008047E040810207E201008082A1C080894
:100290001C2A08081E101010100C1E0C1E0C3038E2
:1002A0003E3830060E3E0E06000000000000005FE3
:1002B00000000007000700147F147F14242A7F2AFF
:1002C00012231308646236495620500008070300C1
:1002D000001C2241000041221C002A1C7F1C2A080D
:1002E000083E080800807030000808080808000070
:1002F00060600020100804023E5149453E00427FE4
:10030000400072494949462141494D331814127F32
:100310001027454545393C4A4949314121110907D2
:100320003649494936464949291E00001400000053
:100330004034000000081422411414141414004125
:1003400022140802015909063E415D594E7C1211E2
:10035000127C7F494949363E414141227F4141411A
:100360003E7F494949417F090909013E4141517395
:100370007F0808087F00417F41002040413F017F06
:10038000081422417F404040407F021C027F7F04CE
:1003900008107F3E4141413E7F090909063E415117
:1003A000215E7F09192946264949493203017F0107
:1003B000033F4040403F1F2040201F3F4038403F08
:1003C000631408146303047804036159494D43001E
:1003D0007F4141410204081020004141417F040255
:1003E00001020440404040400003070800205454EC
:1003F00078407F28444438384444442838444428CA
:100400007F385454541800087E090218A4A49C781C
:100410007F0804047800447D40002040403D007F78
:100420001028440000417F40007C047804787C0858
:100430000404783844444438FC182424181824242C
:1004400018FC7C08040408485454542404043F4411
:10045000243C4040207C1C2040201C3C4030403C40
:1004600044281028444C9090907C4464544C4400A0
:100470000836410000007700000041360800020104
:100480000204023C2623263C1EA1A161123A4040F0
:10049000207A38545455592155557941225454786D
:1004A00042215554784020545579400C1E52721206
:1004B000395555555939545454593955545458008F
:1004C00000457C410002457D420001457C407D1293
:1004D00011127DF0282528F07C54554500205454F5
:1004E0007C547C0A097F4932494949323A444444A0
:1004F0003A324A4848303A4141217A3A42402078DB
:10050000009DA0A07D3D4242423D3D4040403D3CDB
:1005100024FF2424487E4943662B2FFC2F2BFF0900
:1005200029F620C0887E09032054547941000044F4
:100530007D413048484A32384040227A007A0A0ADF
:10054000727D0D19317D2629292F28262929292652
:1005500030484D4020380808080808080808382F97
:1005600010C8ACBA2F102834FA00007B0000081421
:100570002A142222142A14085500550055AA55AAF7
:1005800055AAFF55FF55FF000000FF00101010FF97
:1005900000141414FF001010FF00FF1010F010F0F2
:1005A000141414FC001414F700FF0000FF00FF14E3
:1005B00014F404FC141417101F10101F101F14142F
:1005C000141F00101010F0000000001F1010101079
:1005D0001F10101010F010000000FF10101010106D
:1005E00010101010FF10000000FF140000FF00FFAB
:1005F00000001F10170000FC04F414141710171447
:1006000014F404F40000FF00F71414141414141468
:10061000F700F7141414171410101F101F141414DB
:10062000F4141010F010F000001F101F0000001F45
:1006300014000000FC140000F010F01010FF10FF78
:10064000141414FF141010101F00000000F010FF0D
:10065000FFFFFFFFF0F0F0F0F0FFFFFF00000000F1
:1006600000FFFF0F0F0F0F0F3844443844FC4A4A75
:100670004A347E02020606027E027E02635549412A
:10068000633844443C04407E201E2006027E020261
:1006900099A5E7A5991C2A492A1C4C7201724C3075
:1006A0004A4D4D303048784830BC625A463D3E494C
:1006B0004949007E0101017E2A2A2A2A2A44445FF0
:1006C000444440514A444040444A51400000FF01E4
:1006D00003E080FF000008086B6B083612362436F2
:1006E000060F090F06000018180000001010003057
:1006F00040FF0101001F01011E00191D1712003CDF
:100700003C3C3C0000000000000103070F1F3F7F3E
:100710000080C0E0F0F8FCFEDB40A4A62EAF200075
:10072000A1C8D300408DAED580A8000060000000B5
:100730000000000000000000000000E000000000D9
:1007400000000000000000000001E00000000000C8
:10075000000000000000000001F0000000000000A8
:100760000000000000000003F00000000000000096
:1007700000000000000007F0000000000000000082
:10078000000000000007F80000000000000000006A
:10079000000000000FF800000003C0007E00000110
:1007A000E0007F0FF800000003C000FE000001E041
:1007B00000FFEFF800000003C000FE000001E000B1
:1007C000FFFFF800000003C000F00000000F007FF2
:1007D000FE7FC0000003C000F00000000F003FFEDD
:1007E0007FF83FF1FBCFFCFEF3BC3DEFE01FFE7F47
:1007F000FF7FFBFFDFFEFEFFBC3DEFE01FC6FFFFFC
:100800007FFBFFDFFEFEFFBC3DEFE00FE3C7FE789E
:100810007BC3DE1EF0FFBC3DEF0007FF87FC787B4B
:10082000C3DE1EF0F83C3DEF0001FFFFF0007BC38C
:10083000C01EF0F03C3DEF0001F37FE03FFBC3CF73
:10084000FEF0F03C3DEF0003E33F807FFBC3DFFEA3
:10085000F0F03C3DEF0007E73C00787BC3DE1EF084
:10086000F03C3DEF0007FFBE00787BC3DE1EF0F0DA
:100870003C3DEF0007FFFE00787BC3DE1EF0F03C3E
:100880003DEF000FFFFE007FFBFFDFFEF0F03FFDBE
:10089000EFE00FFFFF007FFBFFDFFEF0F03FFDEF1B
:1008A000E00FF9FF003E79F9CF9EF0F01F3DE7E041
:1008B0001FF1FF0000000000000000000000001F0A
:1008C00080FF007FFFFFFFFFFFFFFFFFFFE01C0037
:1008D0007F007FFFFFFFFEB46D888D18E000001FD2
:1008E000007FFFFFFFFE95AD7DB577E000000F00B4
:1008F0007FFFFFFFFEA5AD9D8D19E0000006007F84
:10090000FFFFFFFEB5ADEDB57EE000000000000189
:1009100080000000000000000000038000000000D4
:10092000000000000007C000000000000000000000
:1009300007C00000000000000000000FC000000021
:100940000000000000001FE00000000000000000A8
:10095000001FE00000000000000000003FE0000079
:10096000000000000000003FF00000000000000058
:1009700000007FF0000000000000001FF87FF00082
:100980000000000000003FFE7FF0000000000000BB
:10099000003FFF7FF0000000000000001FFFFBE0B1
:1009A000000000000000000FFFF9FFC00000000081
:1009B00000000FFFF9FFF800000000000007FFF142
:1009C000FFFF00000000000003FC73FFFF80000039
:1009D00000000001FE3FFFFF80000000000000FF5C
:1009E0001E0FFF000000000000007FFE1FFC000043
:1009F00000000000003FFFFFF800000000000000C2
:100A00000FDFFFE0000000000000001F19FFC00022
:100A10000000000000003F3CFF000000000000005C
:100A2000007E7CF800000000000000007FFE7C00DB
:100A300000000000000000FFFFFC000000000000BC
:100A40000000FFFFFE0000000000000000FFFFFEAE
:100A50000000000000000001FFEFFE0000000000A9
:100A6000000001FFCFFE0000000000000003FF07B0
:100A7000FE0000000000000003FC07FE0000000074
:100A800000000003F003FE000000000000000180F1
:100A900000FE000000000000000000007E000000DA
:100AA000000000000000003E000000000000000008
:100AB00000000C000000000000078000FC000003A4
:100AC000C0000000078001FC000003C00000000718
:100AD0008001FC000003C0000000078001E000006E
:100AE000001E000000078001E00000001E007FE300
:100AF000F79FF9FDE7787BDFC0FFF7FFBFFDFDFF44
:100B0000787BDFC0FFF7FFBFFDFDFF787BDFC0F024
:100B1000F787BC3DE1FF787BDE00F0F787BC3DE165
:100B2000F0787BDE0000F787803DE1E0787BDE0037
:100B30007FF7879FFDE1E0787BDE00FFF787BFFD51
:100B4000E1E0787BDE00F0F787BC3DE1E0787BDE1A
:100B500000F0F787BC3DE1E0787BDE00F0F787BC72
:100B60003DE1E0787BDE00FFF7FFBFFDE1E07FFBCA
:100B7000DFC0FFF7FFBFFDE1E07FFBDFC07CF3F3E9
:100B80009F3DE1E03E7BCFC0000000000000000080
:100B9000000000FFFFFFFFFFFFFFFFFFFFC0FFFFA1
:100BA000FFFFFD68DB111A31C0FFFFFFFFFD2B5A6D
:100BB000FB6AEFC0FFFFFFFFFD4B5B3B1A33C0FF3B
:100BC000FFFFFFFD6B5BDB6AFDC04F79756E204256
:100BD00061736C69796F722E2E2E004C6576656C90
:100BE00020004C6576656C20004F79756E756D75CB
:100BF0007A610A676F73746572646967696E697A8E
:100C00000A696C6769206963696E0A746573656B4C
:100C10006B75722065646572697A2E000000210090
:100C2000240027002A002D003000330001010000BD
:100C3000040107010A0100002200250028002B0002
:100C40002E003100340002010000050108010B01F3
:100C500005050505070508080808020202020A0A38
:100C60000808040404040101010101010101030356
:100C7000030303030303040707070C0C0C0C0C0C01
:100C80000C0C0202020206060606060606060B0BFE
:100C90000B0B0B0B0B0B010210202008081020403F
:100CA0001020408002010201080402010102040830
:100CB00010204080804020100804020180040201BE
:100CC0008040201008040201080402010102040807
:100CD00010204080010204081020408000000A0B10
:100CE00002090C0D0E0807030401000000000000BB
:100CF00000000000000000000000000000000000F4
:100D000000000000000000001211100000000000B0
:100D100000000000000000000000000000000000D3
:100D200000002200FF2100003A1CF22211241FBE05
:100D3000CFEFD1E2DEBFCDBF00E00CBF12E0A0E0FC
:100D4000B2E0E8E4FFE400E00BBF02C007900D92C0
:100D5000AC3EB107D9F724E0ACEEB2E001C01D9281
:100D6000A73CB207E1F716E0C5E9D6E000E006C00F
:100D700021970109802FFE010E943E26C439D10728
:100D800080E00807A9F70E94BD1C0C9492270C94E0
:100D90000000089580917B00877F80937B0080E432
:100DA00080937C0080917A00806480937A008091A7
:100DB0007A0086FDFCCF80917800909179000895AB
:100DC0008150823108F05AC0E82FF0E08827E451C2
:100DD000F94F8F4F0C943E260C071007FE060407B0
:100DE00008073E07130719071D07230727072B07C7
:100DF000310735073E0739073F07430780918000D9
:100E00008F77809380000895809180008F7DF9CF47
:100E100080918000877FF5CF84B58F7784BD08955A
:100E200084B58F7DFBCF8091B0008F778093B00029
:100E300008958091B0008F7DF9CF809190008F77D9
:100E4000809390000895809190008F7DF9CF8091DC
:100E50009000877FF5CF8091A0008F778093A000CE
:100E600008958091A0008F7DF9CF8091A000877FA9
:100E7000F5CF809120018F77809320010895809194
:100E800020018F7DF9CF80912001877FF5CF1F93BF
:100E9000CF93DF93282F30E0F901E452F34F849190
:100EA000F901EA56F34FD491F901E05BF34FC49195
:100EB000CC23A9F0162F81110E94E006EC2FF0E060
:100EC000EE0FFF1FEA5CF34FA591B4918FB7F89432
:100ED000EC91111108C0D095DE23DC938FBFDF9118
:100EE000CF911F910895DE2BF8CFCF93DF9390E041
:100EF000FC01EA56F34F2491805B934FFC018491EF
:100F00008823D1F090E0880F991FFC01E45EF34F35
:100F1000A591B491FC01EA5CF34FC591D491623084
:100F200071F49FB7F8943C91822F809583238C9322
:100F3000E8812E2B28839FBFDF91CF9108958FB733
:100F4000F894EC912E2B2C938FBFF6CF3FB7F894EB
:100F50008091D2039091D303A091D403B091D50393
:100F600026B5A89B05C02F3F19F00196A11DB11D04
:100F70003FBFBA2FA92F982F8827BC01CD01620F40
:100F8000711D811D911D42E0660F771F881F991FFB
:100F90004A95D1F708958F929F92AF92BF92CF92C8
:100FA000DF92EF92FF924B015C010E94A6076B015A
:100FB0007C010E94A6076C197D098E099F09683E75
:100FC000734081059105A8F321E0821A9108A108D8
:100FD000B10888EEC80E83E0D81EE11CF11C811414
:100FE0009104A104B10429F7FF90EF90DF90CF9016
:100FF000BF90AF909F908F90089508950895AF92FD
:10100000BF92CF92DF92EF92FF920F931F93CF93F5
:10101000DF936C017B018B01040F151FEB015E0157
:10102000AE18BF08C017D10759F06991D601ED91EC
:10103000FC910190F081E02DC6011995892B79F77B
:10104000C501DF91CF911F910F91FF90EF90DF903D
:10105000CF90BF90AF900895FC01538D448D252F04
:1010600030E0842F90E0821B930B541710F0CF9642
:10107000089501970895FC01918D828D981761F074
:10108000A28DAE0FBF2FB11D5D968C91928D9F5F8B
:101090009F73928F90E008958FEF9FEF0895FC016A
:1010A000918D828D981731F0828DE80FF11D858D1D
:1010B00090E008958FEF9FEF0895FC01918D228DB0
:1010C000892F90E0805C9F4F821B91098F73992735
:1010D00008958AED93E00E945D0821E0892B09F4D0
:1010E00020E0822F0895FC01A48DA80FB92FB11D17
:1010F000A35ABF4F2C91848D90E001968F7399274E
:10110000848FA689B7892C93A089B1898C9183702B
:1011100080648C93938D848D981306C00288F38924
:10112000E02D80818F7D80830895EF92FF920F9351
:101130001F93CF93DF93EC0181E0888F9B8D8C8D83
:1011400098131AC0E889F989808185FF15C09FB777
:10115000F894EE89FF896083E889F989808183703A
:10116000806480839FBF81E090E0DF91CF911F91E9
:101170000F91FF90EF900895F62E0B8D10E00F5F0A
:101180001F4F0F731127E02E8C8D8E110CC00FB6E0
:1011900007FCFACFE889F989808185FFF5CFCE0178
:1011A0000E947308F1CFEB8DEC0FFD2FF11DE35A78
:1011B000FF4FF0829FB7F8940B8FEA89FB898081FB
:1011C0008062CFCFCF93DF93EC01888D8823B9F075
:1011D000AA89BB89E889F9898C9185FD03C0808142
:1011E00086FD0DC00FB607FCF7CF8C9185FFF2CFBF
:1011F000808185FFEDCFCE010E947308E9CFDF919A
:10120000CF91089580E090E0892B29F00E94690831
:1012100081110E94000080E090E0892B49F080E07D
:1012200090E0892B29F00E94000081110E940000AB
:1012300080E090E0892B49F080E090E0892B29F054
:101240000E94000081110E94000080E090E0892B44
:1012500049F080E090E0892B29F00E940000811184
:101260000C9400000895EF92FF920F931F93CF9379
:10127000DF93EC01EC80FD806E157F050CF070C0F3
:1012800057FF04C0240F351F50E040E08E819F813E
:10129000FA01E20FF31F8E179F071CF49C01241B19
:1012A000350B121613060CF05BC0922F842F869517
:1012B000869586958E9DD0018F9DB00D11246A0F65
:1012C0007B1FAF8DB8A1A60FB71F477049F188E00B
:1012D000841B482F682F70E0FB01E05FF84FE4911A
:1012E000281708F063C0621B71092FEF30E002C0BD
:1012F000359527956A95E2F7E2230130110539F01B
:10130000B0F10230110561F58C91E82702C08C9193
:10131000E82BEC93941720F12C813D81A20FB31F91
:10132000E92FE41BE83078F00230110521F58E2F0B
:101330009C9190959C932C813D81A20FB31F885066
:101340008830B0F7E770EE2359F0F0E0E85FF84F2F
:10135000E49101301105F9F010F10230110519F195
:10136000DF91CF911F910F91FF90EF900895E0953D
:101370008C91E823CECF81E00115110509F480E0BE
:1013800081959E2F8C932C813D81A20FB31F985085
:101390009830C0F7D7CF8C91E82BEC93E1CFE09554
:1013A0008C91E823FACF8C91E827F7CF0130110513
:1013B00009F4ADCFE0F20230110509F4A5CFAE0D6E
:1013C000BF1DAECF0F931F93CF93DF9377FF04C062
:1013D000260F371F70E060E0DC011496CD91DC91A0
:1013E000FB01E20FF31FCE17DF071CF49E01261B43
:1013F000370B121613064CF5FA0157FD3796A3E08A
:10140000F595E795AA95E1F7EC9FD001ED9FB00D1A
:10141000FC9FB00D11246A0F7B1FDC015F96ED91DC
:10142000FC91E60FF71F4770552781E090E001C05F
:10143000880F4A95EAF7482F0130110559F0A8F0B6
:101440002E0F3F1F02301105E1F0DF91CF911F9168
:101450000F9108952E0F3F1FE217F307B1F381910B
:10146000DF011197842B8C93F7CF80952E0F3F1FB0
:10147000E217F30751F39191DF01119798239C93A1
:10148000F7CFE217F30709F38191DF011197842762
:101490008C93F7CF0F931F93FA01DC0156964C9172
:1014A00056974230E9F04330A1F1413061F514968E
:1014B0004D915C91DA01AE1BBF0BFD01E21BF30BFA
:1014C00077FD0BC0DC0116964D915C916417750792
:1014D00024F4AB01BF010E94E2091F910F9108950E
:1014E00014964D915C91DA01A61BB70BBD016150BA
:1014F0007109DC0116964D915C91DA01AE1BBF0BB0
:10150000FD01E21BF30B77FDE8CFAF010E94330929
:10151000E4CF16964D915C91DA01A61BB70BBD0185
:1015200061507109CDCF0F931F93FA01DC015696DC
:101530004C9156974230A9F0433091F1413019F562
:1015400014964D915C91DA01AE1BBF0BFD013197F2
:10155000F7FD04C0AB01BF010E9433091F910F9139
:10156000089514964D915C91DA01A61BB70BBD014D
:10157000DC0116964D915C91DA01AE1BBF0BFD01AB
:101580003197621B730BF7FDE9CFDC0116964D9185
:101590005C91E417F50714F7AF010E94E209DECF72
:1015A00016964D915C91DA01A61BB70BBD01621B2B
:1015B000730BCECFFC0177FD64C0808591856817E1
:1015C00079070CF05EC057FD5CC082859385481793
:1015D00059070CF056C086898230B1F0833029F16A
:1015E000813041F484819581841B950BAB01BC0152
:1015F000615071092130310509F108F443C02230EE
:10160000310509F463C0089584819581DC01A61B2E
:10161000B70BBD016150710986819781DC01A41B64
:10162000B50BAD0141505109E5CF86819781861BED
:10163000970BBA01AC0141505109DCCFCA0157FDEB
:101640000796A3E095958795AA95E1F7A481B581C2
:101650008A9F90018B9F300D9A9F300D1124620F4D
:10166000731F078CF0A1E02DE60FF71F4770552779
:1016700021E030E001C0220F4A95EAF78081822BF9
:1016800080830895CA0157FD079633E095958795A5
:101690003A95E1F7A481B5818A9F90018B9F300D27
:1016A0009A9F300D1124620F731F078CF0A1E02D5B
:1016B000E60FF71F4770552781E090E001C0880FC3
:1016C0004A95EAF7809590818923DACFCA0157FDC0
:1016D000079623E0959587952A95E1F7A481B58132
:1016E0008A9F90018B9F300D9A9F300D1124620FBD
:1016F000731F078CF0A1E02DE60FF71F47705527E9
:1017000021E030E001C0220F4A95EAF7808182276C
:10171000B7CF08958EBD00000DB407FEFDCF8EB586
:1017200008958CBD9DBD08950895FC016370668B7E
:101730008481958126813781613039F0633029F0C9
:101740009187808733872287089531872087938701
:10175000828708952F923F924F925F926F927F926D
:101760008F929F92AF92BF92CF92DF92EF92FF92B1
:101770000F931F93CF93DF93CDB7DEB76A970FB662
:10178000F894DEBF0FBECDBF9A8F898F7A836983AD
:101790004A01D22E18870F833701BC2CDC015996E1
:1017A0002D913C915A972115310509F015C11896D4
:1017B0008D919C911997681779070CF0D7C11A96EB
:1017C0008D919C91481759070CF0D0C14C2C512C8D
:1017D000B6E0CB9E600D711D11247C876B871616B9
:1017E00017060CF0C3C1EA2DF0E0FA87E98793E011
:1017F000EE0FFF1F9A95E1F7F88BEF87CF01840F6B
:10180000951F181619060CF0B1C1A98DBA8D5896FE
:101810008C91811104C0BFEABD1508F4D394A98D41
:10182000BA8DED91FC9111970284F385E02DCD01E5
:101830001995B5E0DB9EC0011124E981FA81FC8392
:10184000EB83312C212C9C01285F3D4F388F2F8B4F
:101850004A2D50E05E8B4D8BEF89F88DE20DF31D24
:1018600044919E828D82D12CC12C69817A81620D36
:10187000731D7A8B698B842F90E09C8B8B8BE98D09
:10188000FA8DA081B18140FF82C0F1E0BF126FC02C
:10189000AF126DC01C96ED91FC912F813885A4018B
:1018A0004C0D5D1D69897A89898D9A8D1995EB8911
:1018B000FC89F595E7954E2F5FEFC51AD50A6D8126
:1018C0007E818D899E89680F791F7E836D8398E064
:1018D000C916D10481F6AFEF2A1A3A0AEB81FC81CE
:1018E000E40DF51DFC83EB83F5E02F16310409F0C0
:1018F000B3CF2F81388526153705B9F0A98DBA8D5C
:10190000ED91FC91B1E0BB1257C0AB1255C069819B
:101910007A816B5F7F4F0088F189E02D830128E099
:1019200030E0A401898D9A8D1995A98DBA8DED911C
:10193000FC9111970688F789E02DCD016A960FB6C4
:10194000F894DEBF0FBECDBFDF91CF911F910F91F5
:10195000FF90EF90DF90CF90BF90AF909F908F90CF
:101960007F906F905F904F903F902F9019941E96AC
:10197000ED91FC91EF80F88409851A8592014D81E3
:101980005E816B817C81898D9A8D199590CF2F8195
:1019900038852615370509F48ACF31E0B31207C020
:1019A000A31205C01C96ED91FC91930178CF1E9671
:1019B000ED91FC917301E0CF6B857C85641975090D
:1019C0000684F785E02D73010F8518899201A40123
:1019D000898D9A8D1995A9CFF901349694913297F2
:1019E00045915491D91AB7E0DB9E400D511D112449
:1019F000F901259134913C8B2B8BFA012590349081
:101A0000FA013296749031963491398B3296649003
:101A10003196449041E04C1518F04A1508F07FC00B
:101A2000662D062C000C770B7C836B83842D042C95
:101A3000000C990B9E838D83A98DBA8DED91FC913D
:101A400011970284F385E02DCD011995512CD12CED
:101A5000C12CEA2DF0E0FA87E9872B2D30E03C8796
:101A60002B87A401440D511D47FC5A95588F4F8B6D
:101A700069817A81660D711D67FC7A957E876D8715
:101A80007989C71608F051CF2C2D30E04D815E8149
:101A9000420F531FA985BA854A9FC0014B9F900DE5
:101AA0005A9F900D1124FC01E80DF91DF88BEF876A
:101AB000852D612C4F89588D420F531F5E8B4D8BA6
:101AC000671408F050C044244394480E877041F4D2
:101AD000C1010196EB89FC89E20DF31DD4901C0134
:101AE000D7FE19C0A98DBA8DED91FC91662D70E0DD
:101AF000B1E0BB1219C0AB1217C02D853E85620F35
:101B0000731F0484F585E02D2F8138854D895E890A
:101B1000898D9A8D1995DD0C6394842DD1CF1E8209
:101B20001D821C821B8288CF4B815C81640F751FD4
:101B3000AB85BC856A9FC0016B9F900D7A9F900D0D
:101B4000112469817A81680F791F0684F785E02D59
:101B5000EF80F88409851A859D014F855889898D04
:101B60009A8D1995D8CF570CC3948ACF6A960FB621
:101B7000F894DEBF0FBECDBFDF91CF911F910F91C3
:101B8000FF90EF90DF90CF90BF90AF909F908F909D
:101B90007F906F905F904F903F902F9008958F921D
:101BA0009F92AF92CF92EF92FF920F931F93CF939A
:101BB000DF93EC01262F898D9A8D009709F051C093
:101BC0006A30D1F41D861C868D8948E0849F90017F
:101BD00011248E859F85820F931F9F878E8781E0BA
:101BE00090E0DF91CF911F910F91FF90EF90CF90F8
:101BF000AF909F908F9008956D3089F3CC88AD8819
:101C00008F898823C1F08C859D8536E0C39E800D29
:101C1000911D1124488559854817590764F44E854C
:101C20005F851D861C8638E0A39EC0011124840FA9
:101C3000951F9F878E87EA88FB88088919894E85BA
:101C40005F856C857D85CE010E94AA0B2C898C85D1
:101C50009D8546E0249F800D911D11249D878C87D2
:101C6000BECF6A3069F41D861C86FC013896E4916B
:101C70002D898E859F85E29F800D911D1124ADCF0A
:101C80006D3009F4ACCFFC0134963491631708F43D
:101C9000A6CF3296E491E61708F4A1CFFC01329664
:101CA00085909490462F431B342F47E0349F800C3F
:101CB000911C1124F401329634913196E49133232E
:101CC000A9F1EE2399F1CC88F4013596E491AD8821
:101CD0004F89442301F10E2E000CFF0BE30FF11D81
:101CE000CE9EA001CF9E500D11246C857D85460FA0
:101CF000571F68857985641775076CF44E855F8575
:101D00001D861C86FC013896E491AE9E400D511D47
:101D100011245F874E87EA88FB88088919894E85D8
:101D20005F856C857D85CE010E94AA0BF4013496F7
:101D3000E4912C898C859D85E29F800D911D112455
:101D40008DCF0F931F93CF93DF938C01D0E0C0E032
:101D5000F801EC0FFD1F6491662341F083E894E0E5
:101D60000E94CF0D892B11F02196F2CFCE01DF9189
:101D7000CF911F910F9108956F927F928F929F92B2
:101D8000AF92BF92CF92DF92EF92FF920F931F9389
:101D9000CF93DF93EC016B015A0139014801E881CF
:101DA000F9810284F385E02D1995E881F981028893
:101DB000F389E02D87019301A501B601CE011995A4
:101DC000A501480D591D41505109E881F98102884A
:101DD000F389E02D9301B601CE011995E881F981CF
:101DE0000088F189E02D9401A501B601CE01199575
:101DF000C60CD71CB60161507109E881F9810088D1
:101E0000F189E02D9401A501CE011995E881F981B0
:101E10000688F789E02DCE01DF91CF911F910F91B8
:101E2000FF90EF90DF90CF90BF90AF909F908F90FA
:101E30007F906F9019946F927F928F929F92AF9242
:101E4000BF92CF92DF92EF92FF920F931F93CF93A7
:101E5000DF935C01EB016A01490138018701DC0174
:101E6000ED91FC916217730719F5641675062CF055
:101E7000962D872D3A01C92ED82E9601261937099D
:101E80002F5F3F4F048CF58DE02DA301BE01C501EE
:101E90001995DF91CF911F910F91FF90EF90DF90F7
:101EA000CF90BF90AF909F908F907F906F9008954C
:101EB0004615570591F42617370724F0892D4B0155
:101EC000C22FD82F9E01281939092F5F3F4F068C4A
:101ED000F78DE02DA601B401DACF0284F385E02D61
:101EE0001995D501ED91FC910488F589E02D8301C8
:101EF0009401A601BE01C5011995D501ED91FC9192
:101F00000688F789E02DC501DF91CF911F910F91D0
:101F1000FF90EF90DF90CF90BF90AF909F908F9009
:101F20007F906F901994EF92FF920F931F93DC01B3
:101F30001A960D911C911B9718962D913C9119970B
:101F4000ED91FC9100A0F1A1E02D7B0150E040E07B
:101F500070E060E019951F910F91FF90EF90089548
:101F60004F925F926F927F928F929F92AF92BF92A9
:101F7000CF92DF92EF92FF920F931F93CF93DF9355
:101F80006C012B015A0139014801DC01ED91FC91F2
:101F90000284F385E02D1995E201640C751CD601CD
:101FA000ED91FC91C615D7055CF40088F189E02D10
:101FB00087019401A501BE01C60119952196EFCFB5
:101FC0000688F789E02DC601DF91CF911F910F910F
:101FD000FF90EF90DF90CF90BF90AF909F908F9049
:101FE0007F906F905F904F9019948F929F92AF92D5
:101FF000BF92CF92DF92EF92FF920F931F93CF93F6
:10200000DF93EC015B014A016901E881F9810284F7
:10201000F385E02D199595012C0D3D1D21503109B9
:10202000E881F9810488F589E02D78018401A40113
:10203000B501CE011995E881F9810688F789E02D6F
:10204000CE01DF91CF911F910F91FF90EF90DF9024
:10205000CF90BF90AF909F908F9019948F929F9246
:10206000AF92BF92CF92DF92EF92FF920F931F93A6
:10207000CF93DF93EC015B014A0169017801E881AC
:10208000F9810284F385E02D1995C80CD91C8601CD
:1020900001501109E881F9810488F589E02D950145
:1020A000A401B501CE011995E881F9810688F78967
:1020B000E02DCE01DF91CF911F910F91FF90EF9016
:1020C000DF90CF90BF90AF909F908F901994EF9238
:1020D000FF920F931F93DC01ED91FC9100A0F1A101
:1020E000E02D19951F910F91FF90EF9008950F9398
:1020F0001F93DC01ED91FC91068CF78DE02D199575
:102100001F910F9108950F931F93DC01ED91FC91A6
:10211000048CF58DE02D19951F910F9108952F9244
:102120003F924F925F926F927F928F929F92AF9267
:10213000BF92CF92DF92EF92FF920F931F93CF93B4
:10214000DF9300D000D01F921F92CDB7DEB73C01C5
:102150007E836D8358874F8369019A01220F331F55
:102160002F5F3F4FAB018F819885481B590B86012C
:10217000B30183E894E00E94831081E090E02C0199
:102180002F813885421A530AC90191958195910989
:102190009C01220F331F3C832B832F80388481E0E6
:1021A00090E09A838983F12CE12C57FC0DC08F813C
:1021B0009885019798878F832B813C812E5F3F4FB5
:1021C0003C832B83420E531E3FEFE31AF30A8981AF
:1021D0009A8102969A838983480E591E2F813885E9
:1021E0002E153F050CF466C04901880C991C3FEF81
:1021F000831A930A86019401AD80BE808F819885F1
:10220000A81AB90AA501B3016E0D7F1D83E894E0F9
:102210000E9483109401A501B3016E197F0983E820
:1022200094E00E9483102F8138852215330519F11F
:10223000AA24A394B12CAE18BF088D819E81A80E4C
:10224000B91EB301620D731D860189809A8092E0E8
:10225000891A91089401A50183E894E00E948310F3
:10226000B301621973099401A50183E894E00E9407
:1022700083102F8038842F813885E216F3060CF402
:1022800094CF28960FB6F894DEBF0FBECDBFDF9176
:10229000CF911F910F91FF90EF90DF90CF90BF9063
:1022A000AF909F908F907F906F905F904F903F90F6
:1022B0002F9008952F8138852215330509F0B8CF66
:1022C000E0CFDC01ED91FC910084F185E02D1994C3
:1022D0003F924F925F926F927F928F929F92AF92B6
:1022E000BF92CF92DF92EF92FF920F931F93CF9303
:1022F000DF935C017B014A016901390187E0680EC7
:10230000711C93E0759467949A95E1F72B01400E48
:10231000511E10E000E0312CD0E0C0E0CE0187700B
:102320009927330C892B59F4FE0183E0F595E79545
:102330008A95E1F7E00FF11FE80DF91D349037FEA3
:102340000AC021E030E0A701B5016C0F7D1F83E8D2
:1023500094E00E9461112196CC16DD06F9F68FEF0C
:10236000E81AF80A060D171DE414F504A9F6DF9122
:10237000CF911F910F91FF90EF90DF90CF90BF9082
:10238000AF909F908F907F906F905F904F903F9015
:1023900008952F923F924F925F926F927F928F9209
:1023A0009F92AF92BF92CF92DF92EF92FF920F93E4
:1023B0001F93CF93DF9300D000D0CDB7DEB73C01A1
:1023C0006A013E832D83FC82EB825801A41AB50A70
:1023D000B7FE03C0B194A194B1088D809E80861A87
:1023E000970A97FE03C09194819491088A149B04E4
:1023F0005CF0902F812F0D811E819D838E839C2DFB
:102400008D2D6B01692F782F0C151D055CF09D81BA
:102410008E817E836D83692F782F902F812F860187
:10242000C92ED82E1601201A310A2B012D813E818A
:10243000421A530A57FE03C0519441945108710146
:1024400037FE03C03FEFE31AF30AF594E7948D815A
:102450009E81861797075CF5A1E0B0E0BA83A98357
:10246000C016D1064CF1D301ED91FC910484F585A1
:10247000E02D2B813C81A8016D817E818A149B0413
:102480001CF04D815E81B801C3011995E418F5086F
:10249000F7FE0AC02D813E8189819A81280F391F5C
:1024A0003E832D83E20CF31C0F5F1F4FD9CF2FEF1C
:1024B0003FEF3A832983D4CF26960FB6F894DEBF38
:1024C0000FBECDBFDF91CF911F910F91FF90EF9085
:1024D000DF90CF90BF90AF909F908F907F906F9044
:1024E0005F904F903F902F9008950895209156034C
:1024F000260F3327331F21323105ECF420917A0364
:10250000FC0190E080E0243069F082E00895A09121
:1025100056032191AC014A5C5C4FA40FB52FB11D4D
:102520002C930196861798F380915603680F609359
:10253000560380E0089581E0089510927A0381E0C7
:1025400080937C0310927B0361E084E10E94470743
:1025500061E085E10E944707E9EBF0E080818E7F32
:10256000808380818D7F808388E48093B80085E4B8
:102570008093BC000895CF93DF9391E0909335034F
:102580008823B9F0C091B800D091BA008091BC0006
:102590008A7B8093BC0060E084E10E94470760E092
:1025A00085E10E9447070E949D12D093BA00C09314
:1025B000B800DF91CF910895E091A6038091A50323
:1025C000E81730F4F0E0E05FFC4F808190E0089580
:1025D0008FEF9FEF08959091A6038091A5032FEFB1
:1025E0003FEF981748F4E92FF0E0E05FFC4F2081BF
:1025F00030E09F5F9093A603C90108958091A503E1
:102600009091A603891B990B0895CF92DF92EF92C8
:10261000FF920F931F93CF93DF937C01CB018A012D
:102620002091D903222389F0EB016B01C40ED51E42
:10263000CC15DD0569F06991D701ED91FC91019010
:10264000F081E02DC7011995F3CF642F0E94761217
:10265000C801DF91CF911F910F91FF90EF90DF9014
:10266000CF900895CF93DF931F92CDB7DEB76983E4
:102670002091D9032223F9F02091D603203258F07B
:1026800021E030E0FC013383228390E080E00F9072
:10269000DF91CF9108958091D703E82FF0E0E051CA
:1026A000FD4F998190838F5F8093D7038093D603EA
:1026B00081E090E0ECCF61E0CE0101960E947612BD
:1026C000F7CFCF92DF92EF92FF920F931F93CF93AA
:1026D000DF93D091D60381E0D13208F09CC0C09145
:1026E000D8030E94A6076B017C0180917A038111B7
:1026F0006CC082E080937A0381E080937C038FEF4B
:102700008093790310929E03D0939D03A0EFB2E0D3
:10271000EDE7F3E080E0D8138DC010929F03809125
:102720009F03CC0FC82BC0939F0380917B03813004
:1027300009F084C010927B030E94A6076B017C0104
:1027400080919F038093BB0080913103909132036D
:10275000A0913303B0913403892B8A2B8B2BA1F0EA
:102760000E94A60700913103109132032091330398
:10277000309134036C197D098E099F0906171707DC
:102780002807390708F442C08091BC0083FDD8CFE8
:1027900085EC8093BC000E94A6076B017C018091B0
:1027A0007A03823009F44CC0809179038F3F09F499
:1027B00069C080917903803209F466C08091790301
:1027C000803309F463C084E026C080913103909186
:1027D0003203A0913303B0913403892B8A2B8B2BC6
:1027E00009F483CF0E94A6070091310310913203B0
:1027F00020913303309134036C197D098E099F09B0
:10280000061717072807390708F06FCF80913003A4
:102810000E94BB1285E01092D7031092D60310924B
:10282000D903DF91CF911F910F91FF90EF90DF902F
:10283000CF9008959D9191938F5F6DCF85EEA9CF35
:102840008091310390913203A0913303B09134030E
:10285000892B8A2B8B2B09F4A2CF0E94A60700910B
:1028600031031091320320913303309134036C19FA
:102870007D098E099F09061717072807390708F0F1
:102880008ECFC4CF80E0C7CF82E0C5CF83E0C3CF77
:10289000EF92FF920F931F93CF93DF937C01C62F8C
:1028A0008091A0049091A104009709F459C020914F
:1028B000A40431E03093D9032093D8031092D703B6
:1028C0001092D603DC01ED91FC910190F081E02D96
:1028D00060E019958701EE24E394F12CD1E0C1501A
:1028E0008091A0049091A104CF3F91F1B0E2EB164A
:1028F000F104D8F00E9461138091A0049091A1048A
:102900002091A404D093D9032093D8031092D70325
:102910001092D603DC01ED91FC910190F081E02D45
:1029200060E01995EE24E394F12C8091A00490913D
:10293000A104F8016491DC01ED91FC910190F0811A
:10294000E02D1995BFEFEB1AFB0A0F5F1F4FC7CFA2
:10295000DF91CF911F910F91FF90EF900C94611335
:10296000E091B004F091B10490818091B60480951B
:10297000892380838701C15008F438C0F80184910D
:1029800020919E0430919F04232B29F00E948A0BF2
:102990000F5F1F4FF0CF28E030E040E8E091AC043B
:1029A000F091AD049091B404582F5423D9F0508184
:1029B000952B9083E091AE04F091AF0490815091FB
:1029C000B504952B9083E091AE04F091AF04508153
:1029D0009091B504909595239083469521503109A7
:1029E000E9F6D6CF508190959523E3CFDF91CF9133
:1029F0001F910F91FF90EF9008951F93CF93DF9356
:102A0000EC018D8D9E8D009721F1162F29A131E0CB
:102A10003093D9032093D8031092D7031092D60392
:102A2000DC01ED91FC910190F081E02D60E01995C1
:102A30008D8D9E8DDC01ED91FC910190F081E02D5A
:102A4000612F19958D8D9E8DDF91CF911F910C94E3
:102A50006113ADA5BEA59C918BA9809589238C930C
:102A60008B8D9C8D892B31F0862FDF91CF911F911B
:102A70000C948A0B28E030E080E8A9A5BAA599A9B2
:102A8000462F4823C1F04C91942B9C93ABA5BCA539
:102A90009C914AA9942B9C93ABA5BCA54C919AA957
:102AA000909594239C9386952150310931F7DF91BD
:102AB000CF911F9108954C9190959423E6CFDF928A
:102AC000EF92FF920F931F93CF93DF938091A00417
:102AD0009091A104892B09F498C02091B8043091F9
:102AE000B9044091BA045091BB0460E074E284EFF1
:102AF00090E00E94D7232051310941095109569590
:102B00004795379527952093B80065E082E29DE0D0
:102B10000E94481460918704615083E894E00E9409
:102B2000FD142091890430918A04C901079697FD0C
:102B3000079633E0959587953A95E1F720918704BC
:102B400030918804829F8001839F100D929F100D09
:102B50001124C091A204D091A3048091A00490916B
:102B6000A1040C0F1D1F009709F48FC02091A4042D
:102B700031E03093D9032093D8031092D7031092F9
:102B8000D603DC01ED91FC910190F081E02D60E431
:102B90001995EE24E394F12CDD24D3948091A004C4
:102BA0009091A1040C171D0709F446C0B0E2EB1682
:102BB000F104D8F00E9461138091A0049091A104C7
:102BC0002091A404D092D9032093D8031092D70364
:102BD0001092D603DC01ED91FC910190F081E02D83
:102BE00060E41995EE24E394F12C8091A004909177
:102BF000A1046991DC01ED91FC910190F081E02D3F
:102C00001995BFEFEB1AFB0AC9CF80919E049091F2
:102C10009F04892B31F08091C1049091C2040E94DD
:102C2000910BE091B204F091B30490818091B704CC
:102C300080958923808369CF0E9461138091A004CD
:102C40009091A104892B09F461C02091BC043091BA
:102C5000BD044091BE045091BF0460E074E284EF73
:102C600090E00E94D723205131094109510956951E
:102C70004795379527952093B800DF91CF911F9105
:102C80000F91FF90EF90DF900895E091B004F091E4
:102C9000B10480819091B604892B80830C171D07A5
:102CA00069F2899120919E0430919F04232B19F0A1
:102CB0000E948A0BF3CF28E030E040E8E091AC04BA
:102CC000F091AD049091B404582F5423D9F0508161
:102CD000952B9083E091AE04F091AF0490815091D8
:102CE000B504952B9083E091AE04F091AF04508130
:102CF0009091B50490959523908346952150310984
:102D0000E9F6CCCF508190959523E3CFE091B204C2
:102D1000F091B30480819091B704892B8083ADCF6B
:102D20001F93CF93DF93EC01162F8D8D9E8D892BF2
:102D3000B1F12DA93EA94FA958AD60E074E284EF2E
:102D400090E00E94D723205131094109510956953D
:102D50004795379527952093B80066EA111167EAE1
:102D6000CE010E94FD148D8D9E8D892B41F129ADE0
:102D70003AAD4BAD5CAD60E074E284EF90E00E9450
:102D8000D723205131094109510956954795379567
:102D900027952093B800DF91CF911F9108958B8DD7
:102DA0009C8D892B21F08EAD9FAD0E94910BEFA5DC
:102DB000F8A990818CA9809589238083CECFEFA537
:102DC000F8A980819CA9892B8083E5CF90E080E0E1
:102DD00008950F931F93CF93DF9303E912E0D0E0A0
:102DE000C0E0F80180810E5F1F4F20917102309189
:102DF000720261E0C217D3070CF060E00E9447073F
:102E00002196C330D10569F7DF91CF911F910F91C2
:102E10000895CF93DF939C01FC01E452F34F84911A
:102E2000F901EA56F34FD491F901E05BF34FC491F5
:102E3000C11130C02FB7F8948091CE039091CF0389
:102E4000A091D003B091D1032FBF4091EC025091DB
:102E5000ED026091EE027091EF02841B950BA60BC0
:102E6000B70BC397A105B10520F12FB7F894809156
:102E7000CE039091CF03A091D003B091D1032FBF87
:102E80008093EC029093ED02A093EE02B093EF02D8
:102E900081E010C081110E94E006EC2FF0E0EE0FFF
:102EA000FF1FE251FE4FA591B491EC91ED2309F47F
:102EB000C1CF80E0DF91CF910895609102027091BF
:102EC0000302072E000C880B990B0E94B2242AE9FA
:102ED00039E949E95FE30E9462250E947A247093F0
:102EE0000302609302026091000270910102072EBA
:102EF000000C880B990B0E94B2242AE939E949E9B0
:102F00005FE30E9462250E947A247093010260931D
:102F1000000208950F931F93CF93DF93C6E1D0E093
:102F2000880F991FFC01E158FD4F00811181CE01EE
:102F30004697B80102C0759567958A95E2F761706A
:102F40008C2F0E9447072196CD31D10581F7DF9163
:102F5000CF911F910F9108950F931F93CF93DF93FC
:102F60008091AB039091AC036AE070E00E942A2646
:102F70008B01EC0161E08EE10E94470760E08DE18A
:102F80000E944707C8010E948A1761E070E080E054
:102F900090E00E94CB071C161D06ACF461E08DE1A9
:102FA0000E94470760E08EE10E944707CE010E9421
:102FB0008A1761E070E080E090E0DF91CF911F918F
:102FC0000F910C94CB07DF91CF911F910F91089532
:102FD0009F92AF92BF92CF92DF92EF92FF920F93A8
:102FE0001F93CF93DF939FEAA92E93E0B92ED12CA4
:102FF000C12C22E1922ED0E0C0E0F501EC0FFD1FC4
:103000008081882389F09C9EB0019D9E700D1124C3
:10301000EE24E394F12C06E010E020E130E0A6017C
:1030200083E894E00E94B00F2196C730D10529F7BC
:1030300087E0A80EB11C88E0C80ED11C88E1C81634
:10304000D104C9F6DF91CF911F910F91FF90EF90BE
:10305000DF90CF90BF90AF909F90089560917302E2
:103060007091740221E030E042E050E0809104026F
:10307000909105020C948F10EF92FF920F931F9383
:103080006091AD037091AE03EE24E394F12C04E063
:1030900010E02EE130E04CE350E083E894E00E9441
:1030A000B00F1F910F91FF90EF9008952FEA33E03A
:1030B000FC0150E040E06191D901A40FB51F6C9371
:1030C0004F5F5F4F47305105B1F70796295F3F4F7C
:1030D00043E0243C340761F708958F929F92AF92AA
:1030E000BF920F931F93CF93DF93CDB7DEB7A19716
:1030F0000FB6F894DEBF0FBECDBF19A2423008F460
:103100004AE08E010F5D1F4F842E912CB12CA12C13
:10311000A50194010E94D723E62FB901CA01EA3024
:1031200044F5E05DD801EE938D01232B242B252B54
:1031300079F790E080E0109769F0FD0101900020A0
:10314000E9F73197AF014A1B5B0BBD0183E894E0BF
:103150000E94FF07A1960FB6F894DEBF0FBECDBF49
:10316000DF91CF911F910F91BF90AF909F908F9063
:103170000895E95CD7CF42E050E069EE72E083E861
:1031800094E00C94FF07CF93DF930E94A10EEC0113
:103190000E94BB188C0F9D1FDF91CF910895CF9295
:1031A000DF92EF92FF92CF93DF936C01990FEE08BD
:1031B000FF08F7FE1DC06DE283E894E00E94CF0D8A
:1031C000EC0166277727CB016C197D098E099F09D1
:1031D0004AE00E946D18C80FD91F0E94BB188C0FBF
:1031E0009D1FDF91CF91FF90EF90DF90CF900895DA
:1031F0004AE0C701B6010E946D18EC01EECF2091A4
:10320000890430918A04C901079697FD079623E047
:10321000959587952A95E1F7209187043091880448
:10322000829FA001839F500D929F500D112470E04A
:1032300060E08091A2049091A3040C948B2780916C
:10324000A7039091A80302969093A8038093A703E5
:103250008D339105ECF04091A9035091AA03209180
:10326000AD033091AE034217530754F1225E3F4F36
:10327000241735072CF1809171029091720201960A
:1032800090937202809371021092C4030E94E91617
:103290000E94FF180E943C180E942E180E94E817F6
:1032A0006091A7037091A80321E030E043E050E073
:1032B0008091A9039091AA030E948F100C945F152E
:1032C000803491052CF31092C403E2CF0E94CA0609
:1032D00022E630E0DC010E9446262FEF33E040E09A
:1032E00050E00E94A5233093AE032093AD03225FEC
:1032F0003F4F30930502209304028AE390E09093BD
:103300007402809373020E94FF180E943C180E946E
:10331000E8170E942E180E945F1568EE73E080E0A7
:1033200090E00C94CB070E94FF1882E080939704F2
:103330008093980481E090E09093960480939504A4
:1033400090939404809393041092900410928F04AD
:1033500010929204109291048091C9039091CA0333
:10336000892B51F48AEC91E00E94C31882EC91E021
:103370000E94C3180C945F1589EB91E00E94C3185A
:1033800080EB91E0F5CF0E94FF1881E080939704D5
:103390008093980481E090E0909396048093950444
:1033A00090939404809393041092900410928F044D
:1033B00010929204109291048BED91E00E94C31838
:1033C0001092900410928F048EE190E090939204FA
:1033D0008093910484ED91E00E94A10E8091AB0353
:1033E0009091AC030E94CF180E945F1568EB7BE0C0
:1033F00080E090E00E94CB071092AC031092AB03E8
:1034000083E090E090937202809371021092CC035B
:103410001092CB030E94931984E290E00E94091756
:1034200081110CC083E290E00E940917811106C04F
:1034300082E290E00E940917882371F30895809139
:1034400071029091720201979093720280937102BF
:103450001816190624F00E94C3190C94E9160E944C
:103460006619FBCF0E94862785ED8093BC00809172
:10347000310390913203A0913303B0913403079646
:10348000A11DB11D23E0B695A795979587952A951F
:10349000D1F72091BC0024FD03C010927A03089557
:1034A00040913103509132036091330370913403A2
:1034B000452B462B472B69F30097A105B10541F039
:1034C0002AE22A95F1F700C00197A109B109E1CFDD
:1034D000809130030C94BB121F920F920FB60F9283
:1034E00011242F933F938F939F93AF93BF9380911A
:1034F000CE039091CF03A091D003B091D10330912E
:10350000CD0323E0230F2D3758F50196A11DB11DE2
:103510002093CD038093CE039093CF03A093D00349
:10352000B093D1038091D2039091D303A091D4039F
:10353000B091D5030196A11DB11D8093D203909344
:10354000D303A093D403B093D503BF91AF919F91C0
:103550008F913F912F910F900FBE0F901F90189554
:1035600026E8230F0296A11DB11DD2CF1F920F9204
:103570000FB60F9211240BB60F922F933F934F93D8
:103580005F936F937F938F939F93AF93BF93EF93CB
:10359000FF938AED93E00E947308FF91EF91BF9132
:1035A000AF919F918F917F916F915F914F913F91DB
:1035B0002F910F900BBE0F900FBE0F901F9018957C
:1035C0001F920F920FB60F9211240BB60F922F93EA
:1035D0008F939F93EF93FF93E091EA03F091EB03B6
:1035E0008081E091F003F091F10382FD1DC0908194
:1035F0008091F3038F5F8F732091F403821741F062
:10360000E091F303F0E0E652FC4F958F8093F303D3
:10361000FF91EF919F918F912F910F900BBE0F9083
:103620000FBE0F901F9018958081F2CF1F920F92BE
:103630000FB60F9211240BB60F922F933F934F9317
:103640005F936F937F938F939F93AF93BF93EF930A
:10365000FF938091B900887F803609F44DC008F04F
:1036600040C0883209F4A9C028F5803109F49DC012
:10367000C8F4882309F4FBC0883009F496C0FF9190
:10368000EF91BF91AF919F918F917F916F915F91DA
:103690004F913F912F910F900BBE0F900FBE0F9047
:1036A0001F901895883109F488C0803241F78093C3
:1036B000790314C0803409F49DC040F48033B9F319
:1036C0008833E9F68093790385ECB0C0803509F43E
:1036D00085C0883509F496C0883489F60E94341A6A
:1036E000CECF883909F48CC038F5883729F050F4EA
:1036F000883611F0803719F683E080937A031092B0
:10370000780357C0883809F47BC0803919F08038B5
:1037100009F0B5CF80917803803208F071C0E09154
:10372000780381E08E0F809378038091BB00F0E0F6
:10373000E85AFC4F80833DC0803B39F0E0F4803A8A
:1037400009F479C0883A09F09ACF84E080937A032B
:103750001092570310925603E091A303F091A40333
:1037600019958091560381110FC081E08093560313
:103770001092360309C0803C09F4A6CF883C09F4B6
:10378000A3CF883B09F07BCFE091570381E08E0FF8
:1037900080935703F0E0EA5CFC4F80818093BB008C
:1037A000909157038091560329C080919F03809385
:1037B000BB0085EC8093BC0062CF90919E0380910A
:1037C0009D03981758F5E0919E0381E08E0F80933A
:1037D0009E03F0E0E358FC4F8081E9CFE0919E0327
:1037E00081E08E0F80939E038091BB00F0E0E35850
:1037F000FC4F808390919E0380919D039817C8F29F
:1038000085E8D8CFE0919E0381E08E0F80939E03E0
:103810008091BB00F0E0E358FC4F808380917C03F3
:1038200081115CCF81E080937B0384EA8093BC00AC
:1038300010927A0324CF85EC8093BC0010927A0317
:1038400080917803803230F4E0917803F0E0E85A18
:10385000FC4F10826091780370E0E091A103F09139
:10386000A20388E593E019951092780308CF10928F
:10387000790334CFEAEDF3E01382128248EE53E08D
:1038800060E070E044835583668377838DE992E03E
:103890009183808385EC90E09587848784EC90E029
:1038A0009787868780EC90E0918B808B81EC90E00D
:1038B000938B828B82EC90E0958B848B86EC90E0EE
:1038C000978B868B118E128E138E148EA7E7B4E021
:1038D00013961C921E92129714964D935D936D93BE
:1038E0007C9317978FEA92E011969C938E93E3E86E
:1038F000F4E01382128220E830E03583248380E4F0
:1039000090E0978386833187208793878287168A02
:10391000158614861786168681E0858B848B2FEF9B
:103920003FEF338B228B318B208B878B108E128E47
:10393000118E81EC92E091838083148E138EB68F6A
:10394000A58F10A2178E8FEF84A385A386A387A3CC
:1039500080A780E89AE1A6E0B0E085AB96ABA7AB84
:10396000B0AF80EA96E8A1E0B0E081AF92AFA3AF3C
:10397000B4AF80E586AF17AE0895CF93DF93CDB790
:10398000DEB72C970FB6F894DEBF0FBECDBF78948C
:1039900084B5826084BD84B5816084BD85B5826054
:1039A00085BD85B5816085BD80916E008160809305
:1039B0006E0010928100809181008260809381006E
:1039C000809181008160809381008091800081607E
:1039D000809380008091B10084608093B1008091D9
:1039E000B00081608093B0008091910082608093EC
:1039F000910080919100816080939100809190006E
:103A00008160809390008091A10082608093A100EA
:103A10008091A10081608093A1008091A0008160CD
:103A20008093A00080912101826080932101809188
:103A30002101816080932101809120018160809328
:103A4000200180917A00846080937A0080917A00CE
:103A5000826080937A0080917A00816080937A00FE
:103A600080917A00806880937A001092C100E09182
:103A7000EA03F091EB0382E08083E091E603F091AA
:103A8000E7031082E091E803F091E9038FEC808373
:103A90001092F203E091EE03F091EF0386E0808351
:103AA000E091EC03F091ED03808180618083E091EF
:103AB000EC03F091ED03808188608083E091EC035A
:103AC000F091ED03808180688083E091EC03F091B8
:103AD000ED0380818F7D808362E082E20E94750722
:103AE00062E083E20E94750762E084E20E9475074B
:103AF0008091A2049091A304892B11F10E94FF18D8
:103B00002091890430918A048091870490918804DF
:103B1000213231050CF08EC0B9016052710977FF76
:103B200002C06F5F7F4F759567958357910997FD29
:103B3000019600E210E023E730E04AE257E08DC052
:103B40002091890430918A04C901079697FD079650
:103B5000B3E095958795BA95E1F720918704309168
:103B60008804AC01429FC001439F900D529F900D6D
:103B700011240E9461269093A3048093A204892BB0
:103B800009F0BCCF0E945F1564EF71E080E090E027
:103B90000E94CB070E94FF180E94931946E14983B7
:103BA00061E089810E94750759815F5F59835D31AA
:103BB000B9F761E08DE10E94750761E08EE10E9436
:103BC000750781E090E09093700280936F0261E04E
:103BD0008FE10E94750761E08FE10E94470761E075
:103BE00080E20E94750761E080E20E94470761E081
:103BF00081E20E94750761E081E20E9447070E940E
:103C0000FF180E94AC178091CB039091CC030097D2
:103C100009F08EC283E290E00E940917882309F41C
:103C20000CC21092CA031092C9030E9493190E94F9
:103C30000209E9CFB9016054710977FF02C06F5FD3
:103C40007F4F759567958255910997FD019600E420
:103C500010E022E530E04AE059E0959587950E9412
:103C6000681182E08093A5048091A0049091A10442
:103C7000892B09F4E0C08CE38093A4041092A6037E
:103C80001092A5031092D7031092D6030E949D12A2
:103C90008DEF97E09093A4038093A3038EEF97E0BA
:103CA0009093A2038093A1038091AB0487FD1EC073
:103CB00061E00E94750761E08091AB040E944707B4
:103CC00061E070E080E090E00E94CB0760E08091CE
:103CD000AB040E9447076AE070E080E090E00E9439
:103CE000CB0761E08091AB040E9447078091A0045C
:103CF0009091A104892B09F45FC12091B8043091FF
:103D0000B9044091BA045091BB0460E074E284EFBE
:103D100090E00E94D723205131094109510956955D
:103D20004795379527952093B80064E086E297E0A1
:103D30000E94481460918904615083E894E00E94D5
:103D4000FD1464E082E297E00E9448148091A5048B
:103D500060E1813009F064E183E894E00E94FD14A1
:103D600064E08EE197E00E9448148FE88093C004DD
:103D700080918704909188048038910509F035C1BD
:103D80008091890490918A048034910509F042C1A0
:103D90008091A504813009F026C18FE98093C00489
:103DA00092E199836AED83E894E00E94FD146981B1
:103DB00083E894E00E94FD1461E883E894E00E94A7
:103DC000FD146091C00483E894E00E94FD1469ED45
:103DD00083E894E00E94FD148091A50462E28130A2
:103DE00009F061EF83E894E00E94FD1466E088E149
:103DF00097E00E9448148091A0049091A104892B1F
:103E000009F411C12091BC043091BD044091BE045D
:103E10005091BF0460E074E284EF90E00E94D723E9
:103E200020513109410951095695479537952795F4
:103E30002093B800A7CE61E08091A9040E94750785
:103E400061E08091AA040E9475078091A904082E60
:103E5000000C990BFC01E05BF34FE491F0E0EE0FF6
:103E6000FF1FEA5CF34F259134913093B104209306
:103E7000B004FC01EA56F34FE491E093B60480915C
:103E8000AA04082E000C990BFC01E05BF34FE491AF
:103E9000F0E0EE0FFF1FEA5CF34FA591B491B093F1
:103EA000B304A093B204FC01EA56F34FE491E0930B
:103EB000B7048C91E82BEC9380919E0490919F0421
:103EC000892B09F436C05FB75983F8948091A00319
:103ED000811127C0E5E8FCE08491EBECFCE09491D3
:103EE000E82FF0E0EE0FFF1FE45EF34FA591B491D1
:103EF000EC91E92321F461E085E30E94470761E04A
:103F000085E30E9475078CB580618CBD8CB580649B
:103F10008CBD61E084E30E94750761E083E30E9449
:103F200075078091A0038F5F8093A00389818FBF65
:103F3000BBCE61E08091A7040E94750761E080918B
:103F4000A8040E9475078091A704082E000C990B05
:103F5000FC01E05BF34FE491F0E0EE0FFF1FEA5C41
:103F6000F34F259134913093AD042093AC04FC01C0
:103F7000EA56F34FE491E093B4048091A804082E2C
:103F8000000C990BFC01E05BF34FE491F0E0EE0FC5
:103F9000FF1FEA5CF34FA591B491B093AF04A093D7
:103FA000AE04FC01EA56F34FE491E093B5048C9122
:103FB000E095E823EC9378CE80919E0490919F0445
:103FC000892B31F08091C1049091C2040E94910B21
:103FD000E091B204F091B30490818091B704809590
:103FE00089238083A2CE8FECD9CE80369105A9F4A7
:103FF0008091890490918A04409791F48091A5045E
:10400000813031F480E18093C004E2E0E983CACEDC
:104010008FEAF9CFF2E0F983C5CE22E02983C2CE40
:1040200032E03983BFCEE091B204F091B3048081D5
:104030009091B704892B8083A5CD82E290E00E9405
:104040000917882339F081E090E09093CA038093A8
:10405000C903EBCD84E290E00E940917882309F49C
:10406000E6CD8091C9039091CA03892B09F059C00C
:10407000E1E0F0E0F093CC03E093CB0323E030E009
:1040800030937202209371020E94E91641E050E0E1
:104090005093700240936F028AE592E00E94561896
:1040A0000E94FF1851E0509397045093980481E0C8
:1040B00090E0909396048093950490939404809359
:1040C00093041092900410928F0410929204109214
:1040D00091048BED9BE00E94A10E80916F02909164
:1040E00070020E94CF188AEC9BE00E94C3180E94C5
:1040F0005F1568EE73E080E090E00E94CB070E94BD
:10410000661980916F0290917002019690937002EF
:1041100080936F02EEEFFFEFF0930102E093000255
:1041200086CD82E090E09093CC038093CB037FCD4B
:104130008130910509F02DC28FB7F8944090CE03DD
:104140005090CF036090D0037090D1038FBF8091C7
:10415000C5039091C603A091C703B091C803A30102
:104160009201281B390B4A0B5B0BDA01C9014497FA
:10417000A105B10508F418C1609173027091740231
:1041800030E020E042E050E080910402909105028E
:104190000E948F10609102027091030280910402CC
:1041A00090910502860F971F909305028093040259
:1041B00040910002509101022091730230917402EB
:1041C000240F351F309374022093730201978D37AB
:1041D000910538F0719561957109709303026093B0
:1041E0000202121613060CF420C151954195510993
:1041F00050930102409300028091730290917402E7
:10420000CA97ECF020910402309105028091AD0331
:104210009091AE03A9014E5F5F4F481759077CF09C
:104220004E96821793075CF08091000290910102F4
:1042300091958195910990930102809300024FEA34
:1042400053E05A83498333E0232E312CD12CC12CE7
:104250008091040290910502FC013196FC83EB836E
:10426000809173029091740201968219930928E05B
:10427000E22EF12C10E000E09C01990F440B550B4D
:1042800029873A874B875C87E981FA81E00FF11F24
:104290008081882309F4D0C06B817C816E197F09ED
:1042A000072E000C880B990B0E94B2244B015C0175
:1042B00069857A858B859C850E94B2249B01AC011F
:1042C0000E9462256D837E838F839887A501940168
:1042D000C501B4010E9462259B01AC016D817E8104
:1042E0008F8198850E9409240E94D52520E030E026
:1042F00040E151E40E94752487FF9EC037E03C9D59
:10430000C0013D9D900D112481559C4F080F191F30
:10431000F80110828091AB039091AC0301969093C9
:10432000AC038093AB030E94AC1780910002909184
:104330000102919581959109909301028093000269
:104340000E944D232AE030E040E050E00E94A52387
:1043500016161706180619066CF0F1E0F093C40360
:10436000F092AA03E092A903C10103979093A803D6
:104370008093A7033FEFC31AD30A48E0240E311CF1
:1043800089819A8107969A83898393E0C916D1041B
:1043900009F05ECF0E942E184092C5035092C603CA
:1043A0006092C7037092C8038091C40381110E9478
:1043B0001F190E94CA065C016091AD037091AE03A3
:1043C000F12CE12C04E010E02EE130E04CE350E071
:1043D00083E894E00E94B00F22E630E0D5010E940D
:1043E00046262FEF33E040E050E00E94A5233093B3
:1043F000AE032093AD030E943C188091C403811149
:104400000E941F198091730290917402803491056B
:10441000ECF00E941F1A809171029091720218169E
:104420001906A4F00E94C31902CC2E3331050CF4F6
:10443000E3CE0E941F1AE0CE0F5F1F4F22E1E20E73
:10444000F11C0730110509F01FCF94CF8FEAE82E39
:1044500083E0F82E870190E080E0F801E80FF91F73
:104460002081211175C0019687309105B1F7095F50
:104470001F4F53E0043C150771F70E945D1790E051
:1044800080E0F701E80FF91F2081211161C001963A
:1044900087309105B1F787E0E80EF11C0E151F0576
:1044A00071F70E94FF1892E09093970490939804FC
:1044B000E1E0F0E0F0939604E0939504F093940427
:1044C000E09393042CE130E03093900420938F0428
:1044D00048E150E0509392044093910482EE9BE0B7
:1044E0000E94A10E80916F02909170020E94CF18DD
:1044F0000E945F156CED75E080E090E00E94CB07B4
:1045000080916F02909170020196863091052CF493
:104510009093700280936F0206C0E1E0F0E0F093A8
:104520007002E0936F020E945D1780916F0290917C
:1045300070028330910539F1B4F481309105D9F0DE
:104540000297F1F021E030E03093CC032093CB03CD
:104550000E94FF180E943C180E942E180E94E81723
:104560000E945F1564CB8430910581F0059751F767
:1045700086E092E002C08AE592E00E945618E2CFFF
:1045800085E492E0FACF80E392E0F7CF8BE192E00E
:10459000F4CF029709F04BCB0E94FF1831E0309323
:1045A00097043093980441E050E050939604409370
:1045B00095045093940440939304109290041092A5
:1045C0008F04109292041092910489EE9BE00E9455
:1045D000C3180E945F1568EB7BE080E090E00E94CA
:1045E000CB0725CB81EC92E09093840480938304E5
:1045F0008091A2049091A304009711F00C94FD26E1
:1046000008958F929F92AF92BF92CF92DF92EF92D6
:10461000FF92CF93DF93EC01688179818A819B813E
:10462000611571058105910521F464E279ED8BE551
:1046300097E02DE133EF41E050E00E94A5234901CE
:104640005A019B01AC01A7EAB1E40E94C4236B01AB
:104650007C01ACEEB4EFA50194010E94D223C60EFA
:10466000D71EE81EF91EF7FE06C081E0C81AD10861
:10467000E10880E8F80AC882D982EA82FB82C70191
:10468000B6019F77DF91CF91FF90EF90DF90CF90B1
:10469000BF90AF909F908F9008958F929F92AF920E
:1046A000BF92CF92DF92EF92FF926091750270916C
:1046B00076028091770290917802611571058105EB
:1046C000910521F464E279ED8BE597E02DE133EF7C
:1046D00041E050E00E94A52349015A019B01AC0131
:1046E000A7EAB1E40E94C4236B017C01ACEEB4EFF5
:1046F000A50194010E94D223C60ED71EE81EF91E02
:10470000F7FE06C081E0C81AD108E10880E8F80A7F
:10471000C0927502D0927602E0927702F09278020F
:10472000C701B6019F77FF90EF90DF90CF90BF90C9
:10473000AF909F908F90089560937502709376026A
:1047400080937702909378020895052E97FB1EF4CC
:1047500000940E94BC2357FD07D00E94D72307FC7A
:1047600003D04EF40C94BC23509540953095219580
:104770003F4F4F4F5F4F089590958095709561958D
:104780007F4F8F4F9F4F08950E94F923A59F900D53
:10479000B49F900DA49F800D911D11240895B7FF23
:1047A0000C94C4230E94C423821B930B0895A1E29E
:1047B0001A2EAA1BBB1BFD010DC0AA1FBB1FEE1F9B
:1047C000FF1FA217B307E407F50720F0A21BB30BE6
:1047D000E40BF50B661F771F881F991F1A9469F762
:1047E00060957095809590959B01AC01BD01CF01BE
:1047F0000895A29FB001B39FC001A39F700D811DBA
:104800001124911DB29F700D811D1124911D0895D9
:104810005058BB27AA270E9420240C9428250E94C8
:104820001A2538F00E94212520F039F49F3F19F411
:1048300026F40C9417250EF4E095E7FB0C94112553
:10484000E92F0E94392558F3BA17620773078407C6
:10485000950720F079F4A6F50C945B250EF4E0950D
:104860000B2EBA2FA02D0B01B90190010C01CA012A
:10487000A0011124FF27591B99F0593F50F4503ED5
:1048800068F11A16F040A22F232F342F4427585FC7
:10489000F3CF469537952795A795F0405395C9F7DF
:1048A0007EF41F16BA0B620B730B840BBAF0915097
:1048B000A1F0FF0FBB1F661F771F881FC2F70EC036
:1048C000BA0F621F731F841F48F487957795679509
:1048D000B795F7959E3F08F0B0CF9395880F08F0F5
:1048E0009927EE0F9795879508950E94ED2408F477
:1048F00081E008950E9481246894B1110C945C2594
:1049000008950E94412588F09F5798F0B92F992764
:10491000B751B0F0E1F0660F771F881F991F1AF0AA
:10492000BA95C9F714C0B13091F00E945B25B1E08F
:1049300008950C945B25672F782F8827B85F39F08E
:10494000B93FCCF3869577956795B395D9F73EF443
:1049500090958095709561957F4F8F4F9F4F0895EB
:10496000E89409C097FB3EF4909580957095619509
:104970007F4F8F4F9F4F9923A9F0F92F96E9BB27BF
:104980009395F695879577956795B795F111F8CF3B
:10499000FAF4BB0F11F460FF1BC06F5F7F4F8F4FA6
:1049A0009F4F16C0882311F096E911C0772321F09C
:1049B0009EE8872F762F05C0662371F096E8862F34
:1049C00070E060E02AF09A95660F771F881FDAF78B
:1049D000880F9695879597F90895990F0008550FB8
:1049E000AA0BE0E8FEEF16161706E807F907C0F075
:1049F00012161306E407F50798F0621B730B840B7D
:104A0000950B39F40A2661F0232B242B252B21F456
:104A100008950A2609F4A140A6958FEF811D811DF6
:104A2000089597F99F6780E870E060E008959FEF30
:104A300080EC089500240A94161617061806090635
:104A4000089500240A941216130614060506089504
:104A5000092E0394000C11F4882352F0BB0F40F48C
:104A6000BF2B11F460FF04C06F5F7F4F8F4F9F4FCC
:104A7000089557FD9058440F551F59F05F3F71F04E
:104A80004795880F97FB991F61F09F3F79F08795B5
:104A90000895121613061406551FF2CF4695F1DF3E
:104AA00008C0161617061806991FF1CF86957105CE
:104AB000610508940895E894BB2766277727CB0102
:104AC00097F908950E9475250C9428250E941A25AF
:104AD00038F00E94212520F0952311F00C94112527
:104AE0000C94172511240C945C250E94392570F331
:104AF000959FC1F3950F50E0551F629FF001729F83
:104B0000BB27F00DB11D639FAA27F00DB11DAA1F91
:104B1000649F6627B00DA11D661F829F2227B00DDE
:104B2000A11D621F739FB00DA11D621F839FA00D69
:104B3000611D221F749F3327A00D611D231F849FB9
:104B4000600D211D822F762F6A2F11249F57504010
:104B50009AF0F1F088234AF0EE0FFF1FBB1F661F8B
:104B6000771F881F91505040A9F79E3F510580F054
:104B70000C9411250C945C255F3FE4F3983ED4F32C
:104B8000869577956795B795F795E7959F5FC1F7F8
:104B9000FE2B880F911D9695879597F9089519F426
:104BA00016F40C9417250C9415260E944125B8F391
:104BB0009923C9F3B6F39F57550B87FF0E9423260D
:104BC0000024A0E640EA900180585695979528F475
:104BD000805C660F771F881F20F02617370748076D
:104BE00030F4621B730B840B202931294A2BA695C4
:104BF00017940794202531254A2758F7660F771F09
:104C0000881F20F026173707480730F4620B730B14
:104C1000840B200D311D411DA09581F7B901842F12
:104C20009158880F9695879508959F3F31F0915040
:104C300020F4879577956795B795880F911D969580
:104C4000879597F9089591505040660F771F881FF8
:104C5000D2F7089597FB072E16F4009407D077FD3E
:104C600009D00E944D2607FC05D03EF49095819511
:104C70009F4F0895709561957F4F0895EE0FFF1F28
:104C8000881F8BBF0790F691E02D19940E94F9239D
:104C9000B7FF0895821B930B0895AA1BBB1B51E11C
:104CA00007C0AA1FBB1FA617B70710F0A61BB70B9C
:104CB000881F991F5A95A9F780959095BC01CD0141
:104CC00008950F931F93CF93DF938230910510F4D3
:104CD00082E090E0E091C504F091C60430E020E06D
:104CE000B0E0A0E0309799F42115310509F44AC0ED
:104CF000281B390B24303105D8F58A819B81611539
:104D0000710589F1FB0193838283FE0111C040810B
:104D100051810281138148175907E0F0481759075C
:104D200099F4109761F012960C93129713961C93B6
:104D30003296CF01DF91CF911F910F91089500938B
:104D4000C5041093C604F4CF2115310551F0421764
:104D5000530738F0A901DB019A01BD01DF01F80119
:104D6000C1CFEF01F9CF9093C6048093C504CDCF96
:104D7000FE01E20FF31F8193919322503109398391
:104D80002883D7CF2091C3043091C404232B41F44E
:104D900020917B0230917C023093C4042093C304A1
:104DA0002091790230917A022115310541F42DB715
:104DB0003EB740917D0250917E02241B350BE0915D
:104DC000C304F091C404E217F307A0F42E1B3F0BB9
:104DD0002817390778F0AC014E5F5F4F241735076D
:104DE00048F04E0F5F1F5093C4044093C304819357
:104DF00091939FCFF0E0E0E09CCFCF93DF930097BB
:104E0000E9F0FC01329713821282A091C504B0919F
:104E1000C604ED0130E020E01097A1F4208131813B
:104E2000820F931F2091C3043091C40428173907BF
:104E300009F061C0F093C404E093C304DF91CF9103
:104E40000895EA01CE17DF07E8F54A815B819E01EC
:104E500041155105B1F7E901FB83EA834991599165
:104E6000C40FD51FEC17FD0761F480819181029674
:104E7000840F951FE90199838883828193819B83A5
:104E80008A83F0E0E0E012968D919C911397009751
:104E9000B9F52D913C911197CD010296820F931F88
:104EA0002091C3043091C4042817390739F630978C
:104EB00051F51092C6041092C504B093C404A09397
:104EC000C304BCCFD383C28340815181840F951F1B
:104ED000C817D90761F44E5F5F4F88819981480FE9
:104EE000591F518340838A819B819383828321153B
:104EF000310509F0B0CFF093C604E093C5049ECF0E
:104F0000FD01DC01C0CF13821282D7CF81E090E097
:104F1000F8940C949227DC0101C06D9341505040ED
:104F2000E0F7089516E0C5E9D6E000E006C0802F5E
:104F3000FE010E943E262196011DC639D10780E060
:084F40000807A9F7F894FFCF60
:104F48000200020040000100010001000000010011
:104F5800010001000100010001000001010101013F
:104F68000101000000000000000101010101010130
:104F7800010100000001010100010101000101011E
:104F88000000000101010001000100010001000111
:104F98000001000100010001000100000001000003
:104FA80000000001010100000001010101010001F0
:104FB8000003003600010000000000C70480003F25
:104FC8000006005B004F0066006D007D0007007F53
:104FD800006F001F0020002100000000009508FF5E
:104FE800072C08E2085D083B084F08000000003263
:104FF800130513E616C906FE12EB12DC12000000B8
:1050080000CF0DFF07E6167512DA0AC906611167A7
:105018001083107710C911C906950B90164A0A9388
:0C5028000AB00F930F1B0FBC0E0D0A0006
:00000001FF
